:020000040800F2
:1000000000000220311D0008B1060008B3060008F8
:10001000B5060008B7060008B90600080000000091
:10002000000000000000000000000000BB06000807
:10003000BD06000800000000BF060008C106000859
:10004000811D0008811D0008811D0008811D000818
:10005000811D0008811D0008811D0008811D000808
:10006000811D0008811D0008811D0008811D0008F8
:10007000811D0008811D0008811D0008811D0008E8
:10008000811D0008811D0008811D0008811D0008D8
:10009000811D0008811D0008811D0008811D0008C8
:1000A000811D0008C9060008811D0008811D000887
:1000B000811D0008811D0008811D0008811D0008A8
:1000C000811D0008811D0008811D0008811D000898
:1000D000811D0008811D0008811D0008811D000888
:1000E000811D0008811D0008811D0008811D000878
:1000F000811D0008811D0008811D0008811D000868
:10010000811D0008811D0008811D0008811D000857
:10011000811D0008811D0008811D0008811D000847
:10012000811D0008811D0008811D0008811D000837
:10013000811D0008811D0008811D0008811D000827
:10014000811D0008811D0008811D0008811D000817
:10015000811D0008811D0008811D0008811D000807
:10016000811D0008811D0008811D0008811D0008F7
:10017000811D0008811D0008811D0008000000008D
:08018000811D0008811D00082B
:1001880010B5054C237833B9044B13B10448AFF3C9
:1001980000800123237010BD3C04002000000000F3
:1001A8007C1F000808B5034B1BB103490348AFF394
:1001B800008008BD00000000400400207C1F0008EB
:1001C80053B94AB9002908BF00281CBF4FF0FF31B6
:1001D8004FF0FF3000F072B9ADF1080C6DE904CEB4
:1001E80000F006F8DDF804E0DDE9022304B070470A
:1001F8002DE9F047089E04468846002B4BD18A42D9
:10020800154667D9B2FA82F24AB1C2F1200701FA5B
:1002180002F320FA07F7954047EA030894404FEAAB
:10022800154E230CB8FBFEF71FFA85FC0EFB17884A
:1002380043EA084307FB0CF1994209D9EB1807F187
:10024800FF3080F01B81994240F21881023F2B4415
:100258005B1AA4B2B3FBFEF00EFB103344EA03446E
:1002680000FB0CFCA44509D92C1900F1FF3380F0E0
:100278000781A44540F2048102382C4440EA074033
:10028800A4EB0C0400271EB1D4400023C6E90043A8
:100298003946BDE8F0878B4209D9002E00F0EB8083
:1002A8000027C6E9000138463946BDE8F087B3FAA9
:1002B80083F7002F47D18B4202D3824200F2FA80A3
:1002C800841A61EB030301209846002EE0D0C6E9AA
:1002D8000048DDE702B9FFDEB2FA82F2002A40F0F8
:1002E8008F80491B4FEA154E1FFA85F80127B1FB8D
:1002F800FEFC230C0EFB1C1143EA014308FB0CF126
:10030800994207D9EB180CF1FF3002D2994200F25A
:10031800CD808446591AA3B2B1FBFEF00EFB10142F
:1003280043EA044408FB00F8A04507D92C1900F15A
:10033800FF3302D2A04500F2B6801846A4EB0804A9
:1003480040EA0C409FE7C7F1200CBB4022FA0CFEA4
:100358004EEA030E01FA07F420FA0CF521FA0CF321
:100368004FEA1E482543B3FBF8F92C0C08FB193358
:100378001FFA8EFA44EA034309FB0AF49C4202FA84
:1003880007F200FA07F10BD91EEB030309F1FF305E
:1003980080F087809C4240F28480A9F1020973446E
:1003A8001B1BADB2B3FBF8F008FB103345EA03445E
:1003B80000FB0AFAA24508D91EEB040400F1FF333A
:1003C8006BD2A24569D90238744440EA0940A0FBBF
:1003D8000289A4EB0A044C45C2464B4654D351D07B
:1003E800002E69D0B1EB0A0564EB030404FA0CFC97
:1003F800FD40FC404CEA0505C6E90054002747E7E4
:10040800C2F1200320FA03F7954001FA02F021FA1D
:1004180003F34FEA154E3843010CB3FBFEF71FFAFE
:1004280085F80EFB173341EA034107FB08F38B42BB
:1004380004FA02F407D9691807F1FF3C2FD28B425E
:100448002DD9023F2944CB1A81B2B3FBFEF00EFB33
:10045800103341EA034100FB08F38B4207D96918BE
:1004680000F1FF3C17D28B4215D902382944C91A2A
:1004780040EA07473BE73746304609E70746E7E6DD
:100488001846FBE64145ABD2B8EB020A69EB0E020F
:1004980001381346A4E76046E9E7184695E767463A
:1004A800D1E781467CE702382C4447E7ACF1020CDF
:1004B8002B442FE7384608E73746E9E6704700BF80
:1004C800024B1B689862D963704700BF98040020EC
:1004D80008B542F211710120FFF7F2FF012000F088
:1004E80019FC08BD030EC0F3074202FB03F2C0F378
:1004F800072101FB03F1C0B200FB03F0024B1B68AC
:1005080058639963DA637047D804002030B58BB01C
:1005180000240594069407940894099401941E4BAA
:100528001A6B42F001021A631A6B02F0010201927F
:10053800019A02941A6B42F480721A631A6B02F4DD
:1005480080720292029A03941A6B42F080021A6334
:100558001A6B02F080020392039A04941A6B42F019
:1005680008021A631B6B03F008030493049B0B4DEA
:1005780022464FF4E051284600F02EFD4FF4E05398
:100588000593012306930794089405A9284600F0CB
:100598003FFC0BB030BD00BF00380240001C0240D9
:1005A80072B6FEE700B595B03022002108A801F028
:1005B80009FC00230393049305930693079301937F
:1005C800204A116C41F080511164126C02F0805283
:1005D8000192019A02931C4B1A6842F480421A60F5
:1005E8001B6803F480430293029B012308934FF492
:1005F8008033099302230E934FF480020F92062250
:100608001092A822119212930423139308A800F0C1
:10061800E9FC98B90F23039302230493002305935D
:100628004FF4A05306934FF480530793052103A872
:1006380000F022FF20B915B05DF804FBFFF7B0FF0A
:10064800FFF7AEFF003802400070004008B500F028
:1006580035FBFFF7A7FFFFF759FF00F0FFFAFFF799
:1006680037FF0248FFF73EFFF9E700BF332211FFCB
:1006780082B0002100910B4B5A6C42F480425A64BC
:100688005A6C02F480420092009A01911A6C42F06E
:1006980080521A641B6C03F080530193019B02B0D3
:1006A800704700BF00380240FEE7FEE7FEE7FEE7BE
:1006B800FEE770477047704708B500F019FB08BDA2
:1006C80008B5024801F04FF808BD00BF58040020E3
:1006D800024B4FF000629A60704700BF00ED00E0E7
:1006E80000B585B00368254A93420BD0244A93424B
:1006F8001CD0244A934226D0234A934230D005B0D6
:100708005DF804FB00210091204B5A6C42F0010275
:100718005A645B6C03F001030093009B0A4619209E
:1007280000F01EFB192000F04FFBE8E700230193BF
:10073800164B1A6C42F004021A641B6C03F0040393
:100748000193019BDBE700230293104B1A6C42F0E4
:1007580008021A641B6C03F008030293029BCEE79D
:1007680000230393094B5A6C42F002025A645B6CF3
:1007780003F002030393039BC1E700BF000001409D
:1007880000080040000C004000040140003802400E
:1007980000B58BB00023059306930793089309933C
:1007A8000368354A93420BD0344A934220D0344AE6
:1007B800934234D0334A934247D00BB05DF804FBE0
:1007C80000230193304B1A6B42F001021A631B6B32
:1007D80003F001030193019B4FF470630593022317
:1007E80006930123099305A9284800F011FBE4E7C3
:1007F80000230293244B1A6B42F008021A631B6B06
:1008080003F008030293029B4FF4804305930223ED
:100818000693099305A91E4800F0FAFACDE70023CC
:100828000393194B1A6B42F001021A631B6B03F016
:1008380001030393039B072305930223069309935C
:1008480005A9124800F0E4FAB7E7002304930E4B19
:100858001A6B42F480721A631B6B03F4807304935F
:10086800049BE0230593022306930323099305A918
:10087800084800F0CDFAA0E7000001400008004059
:10088800000C004000040140003802400000024013
:10089800000C02400020024010B596B000241294CB
:1008A8001394149415941094119409940A940B9425
:1008B8000C940D940E940F942022214601A801F067
:1008C80081FA3D483D4B0360A7234360846044F6AA
:1008D8001F63C36004614461846101F065F8002806
:1008E8004ED116A94FF4805341F8103D324801F01B
:1008F8003EF9002847D1304801F06FF8002845D16B
:1009080000231093119310A92B4801F09DF900289A
:100918003FD1602309934FF4FA630A9300220B92A4
:100928000C920D920E920F9209A9234801F0A6F895
:10093800002831D1042209A91F4801F09FF870BB93
:10094800082209A91C4801F099F858BB0C2209A9EA
:10095800194801F093F840BB0023019302930393D5
:10096800049305934FF400520692089301A9124884
:1009780001F0AEF9E0B91048FFF70AFF16B010BD54
:10098800FFF70EFEADE7FFF70BFEB4E7FFF708FE33
:10099800B6E7FFF705FEBCE7FFF702FECAE7FFF779
:1009A800FFFDCDE7FFF7FCFDD0E7FFF7F9FDD3E743
:1009B800FFF7F6FDDFE700BF580400200000014004
:1009C80000B58FB000230A930B930C930D930893F3
:1009D8000993019302930393049305930693079352
:1009E8002148224A02604360836045F20722C260C0
:1009F8000361836100F0D8FF30BB0EA94FF4805328
:100A080041F8103D184801F0B2F800BB164800F054
:100A1800E4FFF8B900230893099308A9124801F0E4
:100A280013F9D0B96023019300230293039305932C
:100A3800082201A90C4801F021F888B90A48FFF7F3
:100A4800A7FE0FB05DF804FBFFF7AAFDD5E7FFF797
:100A5800A7FDDBE7FFF7A4FDDCE7FFF7A1FDE1E772
:100A6800FFF79EFDEAE700BF980400200008004059
:100A780000B58FB000230A930B930C930D93089342
:100A880009930193029303930493059306930793A1
:100A98002B482C4A0260436083604FF6FF72C260A5
:100AA8000361836100F080FF002834D10EA94FF460
:100AB800805341F8103D224801F059F870BB204896
:100AC80000F08BFF68BB00230893099308A91C4812
:100AD80001F0BAF840BB6023019342F2107302930D
:100AE80000220392059201A9154800F0C7FFF0B94A
:100AF80004220DEB0201124800F0C0FFD0B9082211
:100B080001A90F4800F0BAFFB8B90D48FFF740FE39
:100B18000FB05DF804FBFFF743FDC7E7FFF740FDA3
:100B2800CDE7FFF73DFDCEE7FFF73AFDD3E7FFF747
:100B380037FDDDE7FFF734FDE1E7FFF731FDE4E7D7
:100B4800D8040020000C004010B596B00024129480
:100B58001394149415941094119409940A940B9472
:100B68000C940D940E940F942022214601A801F0B4
:100B780029F93848384B0360A7234360846044F65A
:100B88001F63C36004614461846100F00DFF0028A5
:100B980047D116A94FF4805341F8103D2D4800F075
:100BA800E6FF002840D12B4800F017FF00283ED16F
:100BB80000231093119310A9264801F045F8002846
:100BC80038D1602309934FF4FA630A9300220B92F9
:100BD8000C920D920E920F9209A91E4800F04EFF3A
:100BE80058BB042209A91B4800F048FF40BB082253
:100BF80009A9184800F042FF28BB0023019302937B
:100C08000393049305934FF400520692089301A9A5
:100C1800104801F05DF8C8B90E48FFF7B9FD16B0E5
:100C280010BDFFF7BDFCB4E7FFF7BAFCBBE7FFF761
:100C3800B7FCBDE7FFF7B4FCC3E7FFF7B1FCD0E7AB
:100C4800FFF7AEFCD3E7FFF7ABFCD6E7FFF7A8FC4E
:100C5800E2E700BF180500200004014008B5FFF7CF
:100C68001BFEFFF7ADFEFFF703FFFFF76DFF08BDA3
:100C780010B504460E4B18784FF47A73B3FBF0F3B3
:100C88000C4A1068B0FBF3F000F0ACF868B90F2C10
:100C980001D901200AE0002221464FF0FF3000F080
:100CA8005FF8054B1C60002000E0012010BD00BF6C
:100CB80004000020000000200800002008B50B4BAD
:100CC8001A6842F400721A601A6842F480621A6064
:100CD8001A6842F480721A60032000F02FF800208E
:100CE800FFF7C6FFFFF7C4FC002008BD003C024028
:100CF800034A1168034B1B780B441360704700BF0D
:100D08005805002004000020014B1868704700BFF8
:100D18005805002038B50446FFF7F6FF0546B4F13C
:100D2800FF3F02D0044B1B781C44FFF7EDFF401B2C
:100D3800A042FAD338BD00BF04000020074AD36898
:100D480023F4E0631B041B0C000200F4E06018436A
:100D580040F0BF6040F40030D060704700ED00E024
:100D680030B4174BDB68C3F30223C3F10704042C28
:100D780028BF04241D1D062D18D9033B4FF0FF354D
:100D880005FA04F421EA0401994005FA03F322EA7A
:100D98000303194300280BDB0901C9B200F16040C5
:100DA80000F5614080F8001330BC70470023E5E788
:100DB80000F00F000901C9B2024B1954F4E700BF53
:100DC80000ED00E014ED00E0002807DB00F01F0252
:100DD800400901239340024A42F82030704700BF7F
:100DE80000E100E00138B0F1807F0AD2064B58607C
:100DF800064AF02182F823100020986007221A6022
:100E080070470120704700BF10E000E000ED00E0EF
:100E180000230F2B00F2D780F0B583B039E007220A
:100E280000E00022AA403A430234674D45F82420E6
:100E3800664A1468F24302EA04054F6817F4803FD3
:100E480001D046EA0405614C2560646802EA04059D
:100E58004F6817F4003F01D046EA04055B4C656013
:100E6800A46802EA04054F6817F4801F01D046EA17
:100E78000405564CA560E46822404D6815F4001F2F
:100E880001D046EA0402514CE26001330F2B00F214
:100E9800988001229A400C6804EA0206B242F4D112
:100EA8004C68651E012D03D9112C01D0122C12D1CA
:100EB80085685F000324BC4025EA0405CC68BC4073
:100EC8002C438460456825EA02054C68C4F3001287
:100ED8009A402A434260C4685F000322BA40D24362
:100EE80014408D68BD402543C5604C68022C01D074
:100EF800122C13D1DD08083550F825E003F007045B
:100F08004FEA840C0F2404FA0CF42EEA040E0C6940
:100F180004FA0CF444EA0E0440F825400468224020
:100F28004C6804F00304BC40224302604A6812F093
:100F3800805FAAD000220192254A546C44F4804470
:100F48005464526C02F480420192019A9C08A51CD8
:100F58001D4A52F8257003F0030295000F22AA409B
:100F680027EA02071B4A90423FF45BAF02F5806212
:100F780090421AD002F58062904218D002F5806241
:100F8800904216D002F58062904214D002F5806239
:100F9800904212D002F58062904210D002F5806231
:100FA80090423FF43CAF08223CE701223AE7022294
:100FB80038E7032236E7042234E7052232E706221F
:100FC80030E703B0F0BD704700380140003C0140F5
:100FD800003802400000024012B9090481617047DC
:100FE80081617047002800F0E48170B582B0044642
:100FF800036813F0010F3BD0A74B9B6803F00C0369
:10100800042B2CD0A44B9B6803F00C03082B21D095
:101018006368B3F5803F4FD0B3F5A02F52D09E4BF5
:101028001A6822F480321A601A6822F480221A6040
:101038006368002B50D0FFF767FE0546964B1B6888
:1010480013F4003F14D1FFF75FFE401B6428F5D965
:101058000320B3E1904B5B6813F4800FD8D08E4B1C
:101068001B6813F4003F03D06368002B00F0A381D2
:10107800236813F0020F55D0874B9B6813F00C0FB1
:101088003ED0854B9B6803F00C03082B33D0E368F4
:10109800002B68D0814B01221A60FFF735FE054608
:1010A8007D4B1B6813F0020F54D1FFF72DFE401B38
:1010B8000228F5D9032081E1774A136843F4803385
:1010C8001360B5E7744B1A6842F480221A601A68F4
:1010D80042F480321A60ABE7FFF716FE05466E4B06
:1010E8001B6813F4003FC3D0FFF70EFE401B6428B3
:1010F800F5D9032062E1684B5B6813F4800FC6D111
:10110800654B1B6813F0020F04D0E368012B01D074
:10111800012053E1604A136823F0F803216943EA88
:10112800C1031360236813F0080F40D0636963B3E9
:101138005B4B01221A60FFF7E7FD0546564B5B6FD4
:1011480013F0020F33D1FFF7DFFD401B0228F5D95A
:10115800032033E1504A136823F0F803216943EA76
:10116800C1031360DEE74D4B00221A60FFF7CCFD88
:101178000546494B1B6813F0020FD3D0FFF7C4FD97
:10118800401B0228F5D9032018E1454B00221A60BC
:10119800FFF7BAFD0546404B5B6F13F0020F06D010
:1011A800FFF7B2FD401B0228F5D9032006E12368AA
:1011B80013F0040F79D0384B1B6C13F0805F33D1D8
:1011C80000230193344B1A6C42F080521A641B6C52
:1011D80003F080530193019B0125324B1B6813F4E4
:1011E800807F23D0A368012B34D0052B38D02A4B1D
:1011F8001A6F22F001021A671A6F22F004021A67A6
:10120800A368002B36D0FFF77FFD0646224B1B6FE5
:1012180013F0020F48D1FFF777FD801B41F28833A6
:101228009842F3D90320C9E00025D6E71D4A136880
:1012380043F480731360FFF767FD0646194B1B687C
:1012480013F4807FCED1FFF75FFD801B0228F5D90C
:101258000320B3E0104A136F43F001031367CFE78D
:101268000D4B1A6F42F004021A671A6F42F001021E
:101278001A67C5E7FFF748FD0646074B1B6F13F0D3
:10128800020F11D0FFF740FD801B41F288339842CE
:10129800F3D9032092E000BF003802400000474223
:1012A800800E474200700040EDB9A369002B00F0A2
:1012B8008480454A926802F00C02082A51D0022B19
:1012C80017D0424B00221A60FFF71EFD04463E4B22
:1012D8001B6813F0007F42D0FFF716FD001B0228A1
:1012E800F5D903206AE0384A136C23F0805313645D
:1012F800DBE7364B00221A60FFF706FD0546324B46
:101308001B6813F0007F06D0FFF7FEFC401B022885
:10131800F5D9032052E0E369226A1343626A43EA7B
:101328008213A26A5208013A43EA0243E26A43EA94
:101338000263254A5360254B01221A60FFF7E4FC3B
:101348000446214B1B6813F0007F06D1FFF7DCFC35
:10135800001B0228F5D9032030E000202EE00020F1
:101368002CE0012B2CD0184B5B6803F48001E26958
:10137800914201D0012021E003F03F02216A8A4214
:1013880001D001201AE0616A47F6C0721A408A4209
:1013980001D0012012E003F44032A16A8A4201D050
:1013A80001200BE003F07063E26A93420AD0012047
:1013B80004E001207047012000E0002002B070BD69
:1013C8000120FBE70020F9E70038024060004742AF
:1013D800264B9B6803F00C03042B44D0082B01D048
:1013E800234870472DE9F04B204B5A6802F03F0222
:1013F8005B6813F4800F13D01C4B5968C1F3881134
:1014080000231C48A1FB0001FEF7DAFE174B5B68BE
:10141800C3F3014301335B00B0FBF3F0BDE8F08B8D
:10142800124B5B68C3F388131E4600275C01002536
:10143800E41A65EB0705A90141EA9461A001001BC4
:1014480061EB0501CB0043EA5073C400A01943EBDC
:1014580007018B0243EA9053840220461946002371
:10146800FEF7AEFED2E70348704700BF00380240DF
:101478000024F400001BB700002800F09E8070B51F
:101488000446504B1B6803F00F038B4209D2CBB2C2
:101498004C4A1370136803F00F038B4201D00120EC
:1014A80070BD236813F0020F17D013F0040F04D097
:1014B800454A936843F4E0539360236813F0080F98
:1014C80004D0414A936843F4604393603E4A93686A
:1014D80023F0F003A068034393600D46236813F0DC
:1014E800010F32D06368012B21D09A1E012A25D919
:1014F800354A126812F0020F61D033498A6822F027
:10150800030213438B60FFF7FFFB06462E4B9B68D5
:1015180003F00C036268B3EB820F16D0FFF7F4FBFD
:10152800801B41F288339842F0D90320B8E7264A55
:10153800126812F4003FE0D10120B1E7224A126894
:1015480012F0007FD9D10120AAE71E4B1B6803F0D7
:101558000F03AB4209D9EAB21A4B1A701B6803F0A1
:101568000F03AB4201D001209AE7236813F0040F60
:1015780006D0154A936823F4E053E1680B4393605F
:10158800236813F0080F07D00F4A936823F46043C9
:10159800216943EAC1039360FFF71AFF0A4B9B686E
:1015A800C3F30313094AD35CD840094B1860094BAD
:1015B8001868FFF75DFB002072E7012070470120E3
:1015C8006EE700BF003C024000380240941F00084C
:1015D800000000200800002030B4036A23F0010353
:1015E8000362056A4268846924F073040B681C432B
:1015F80025F002058B682B43104DA84203D005F552
:101608008065A84205D123F00803CD682B4323F059
:1016180004030A4DA84203D005F58065A84205D108
:1016280022F440724D6915438A692A4342608461F5
:101638004A684263036230BC704700BF0000014043
:1016480030B4036A23F480730362036A4268C4698E
:1016580024F073040D682C4323F400738D6843EA67
:101668000523124DA84203D005F58065A84206D18E
:1016780023F40063CD6843EA052323F480630B4D0C
:10168800A84203D005F58065A84207D122F440524C
:101698004D6942EA05128D6942EA05124260C46149
:1016A8004A68C263036230BC704700BF0000014053
:1016B80030B4036A23F480530362036A4468C2693E
:1016C80022F4E6420D6842EA052223F400538D68AD
:1016D80043EA0533094DA84203D005F58065A842C1
:1016E80004D124F480444D6944EA85144460C261FD
:1016F8004A680264036230BC704700BF00000140C2
:1017080010B4036A046A24F001040462846924F0B2
:10171800F00444EA021223F00A030B4382610362D5
:1017280010BC704710B4036A23F010030362846985
:10173800036A24F4704444EA023223F0A00343EA23
:1017480001138261036210BC7047836823F0700341
:10175800194341F00701816070477047704770472F
:1017680070477047704710B5044603681A6912F04D
:10177800020F11D0DA6812F0020F0DD06FF00202DA
:101788001A610123037703689B6913F0030F70D074
:10179800FFF7E6FF0023237723681A6912F0040F86
:1017A80012D0DA6812F0040F0ED06FF004021A613A
:1017B8000223237723689B6913F4407F5FD0204678
:1017C800FFF7CEFF0023237723681A6912F0080F6A
:1017D80012D0DA6812F0080F0ED06FF008021A6102
:1017E800042323772368DB6913F0030F4ED02046C8
:1017F800FFF7B6FF0023237723681A6912F0100F4A
:1018080012D0DA6812F0100F0ED06FF010021A61C1
:10181800082323772368DB6913F4407F3DD02046F3
:10182800FFF79EFF0023237723681A6912F0010F40
:1018380003D0DA6812F0010F36D123681A6912F062
:10184800800F03D0DA6812F0800F34D123681A6948
:1018580012F0400F03D0DA6812F0400F32D123683B
:101868001A6912F0200F03D0DA6812F0200F30D175
:1018780010BDFFF774FF2046FFF773FF8AE7204685
:10188800FFF76DFF2046FFF76CFF9BE72046FFF749
:1018980066FF2046FFF765FFACE72046FFF75FFFCE
:1018A8002046FFF75EFFBDE76FF001021A61204690
:1018B800FFF754FFC1E76FF080021A61204600F07D
:1018C80031FAC3E76FF040021A612046FFF74AFF7A
:1018D800C5E76FF020021A61204600F022FAC7E738
:1018E8000368304A904212D0B0F1804F0FD0A2F571
:1018F8007C4290420BD002F58062904207D002F5FC
:101908008062904203D002F57842904203D123F0DE
:1019180070034A681343234A90422AD0B0F1804F9B
:1019280027D0A2F57C42904223D002F580629042F3
:101938001FD002F5806290421BD002F57842904297
:1019480017D002F57052904213D002F5806290428F
:101958000FD002F5806290420BD0A2F598329042E7
:1019680007D002F58062904203D002F5806290426F
:1019780003D123F44073CA68134323F080034A69F0
:10198800134303608B68C3620B688362054B9842FC
:1019980003D003F58063984201D10B6903630123E7
:1019A8004361704700000140A8B110B5044690F8A3
:1019B8003D305BB1022384F83D30211D2068FFF7DC
:1019C8008FFF012384F83D30002010BD80F83C30A3
:1019D800FEF786FEEEE701207047A8B110B5044671
:1019E80090F83D305BB1022384F83D30211D20681A
:1019F800FFF776FF012384F83D30002010BD80F802
:101A08003C30FFF7AAFEEEE70120704730B4036AC6
:101A180023F010030362036A4468826922F4E642F1
:101A28000D6842EA052223F020038D6843EA051376
:101A3800114DA84203D005F58065A84206D123F0D0
:101A48008003CD6843EA051323F040030A4DA842FA
:101A580003D005F58065A84207D124F440644D6998
:101A680044EA85048D6944EA8504446082614A68D1
:101A78008263036230BC70470000014038B590F8BB
:101A88003C30012B66D00D460446012380F83C30DB
:101A9800022380F83D300C2A1AD8DFE802F0071933
:101AA8001919201919193419191947000068FFF76D
:101AB80093FD2268936943F0080393612268936950
:101AC80023F0040393612268936929690B439361A6
:101AD800012384F83D30002084F83C0038BD0068BC
:101AE800FFF794FF2268936943F4006393612268C7
:101AF800936923F48063936122689369296943EAAF
:101B080001239361E4E70068FFF79AFD2268D3692F
:101B180043F00803D3612268D36923F00403D36137
:101B28002268D36929690B43D361D1E70068FFF7BD
:101B3800BFFD2268D36943F40063D3612268D36987
:101B480023F48063D3612268D369296943EA0123B6
:101B5800D361BDE70220C1E710B4846824F47F4450
:101B680042EA03230B432343836010BC704790F879
:101B78003C30012B66D010B50446012380F83C3078
:101B8800022380F83D300268936823F47F4323F0F2
:101B9800770393600B68402B4AD013D9602B3DD054
:101BA8001ED9702B28D0B3F5005F30D1CB684A68B6
:101BB80089680068FFF7D0FF2268936843F4804380
:101BC800936024E0102B06D004D9202B03D0302BAF
:101BD80001D01CE0DBB919462068FFF7B6FD16E016
:101BE800502B14D1CA6849680068FFF789FD502155
:101BF8002068FFF7AAFD0AE0CB684A688968006890
:101C0800FFF7AAFF2268936843F0770393600123E4
:101C180084F83D30002084F83C0010BDCA6849684B
:101C28000068FFF77FFD60212068FFF78EFDEEE773
:101C3800CA6849680068FFF763FD40212068FFF71C
:101C480084FDE4E70220704790F83C30012B3BD03C
:101C580030B4012380F83C30022380F83D3003681B
:101C68005C689D6824F070040A6822435A6003681F
:101C7800164A93421AD0B3F1804F17D0A2F57C428E
:101C8800934213D002F5806293420FD002F580622E
:101C980093420BD002F57842934207D002F5705276
:101CA800934203D0A2F59432934204D125F08005E3
:101CB8004A6815439D60012380F83D30002380F871
:101CC8003C30184630BC7047022070470000014085
:101CD80090F83C30012B22D0012380F83C30CB68AF
:101CE80023F440738A68134323F480634A681343D8
:101CF80023F400630A68134323F480530A691343E7
:101D080023F400534A69134323F48043CA691343F5
:101D180002685364002380F83C301846704702205C
:101D28007047704770470000DFF834D0002103E0A7
:101D38000C4B5B58435004310B480C4B42189A42E9
:101D4800F6D30B4A02E0002342F8043B094B9A42BF
:101D5800F9D3FEF7BDFC00F011F8FEF777FC7047E9
:101D680000000220BC1F0008000000203C040020E6
:101D78003C04002080050020FEE7000070B50D4EF1
:101D88000D4D761BB61006D00024013455F8043BDF
:101D98009847A642F9D1094E094D761B00F0EAF89A
:101DA800B61006D00024013455F8043B9847A642E3
:101DB800F9D170BDB01F0008B01F0008B81F000897
:101DC800B01F0008F0B4860743D0541E002A3ED046
:101DD800CAB2034602E014F1FF3438D303F8012BEA
:101DE8009D07F8D1032C2BD9CDB245EA05250F2C38
:101DF80045EA054516D9A4F110073F0903F1200665
:101E080006EB071603F1100242E9045542E90255B0
:101E18001032B242F8D104F00F040137032C03EB5F
:101E280007130DD91E462246043A032A46F8045BD6
:101E3800FAD8221F22F003020432134404F00304E8
:101E48002CB1C9B21C4403F8011B9C42FBD1F0BC65
:101E5800704714460346C5E7024B13B1024800F029
:101E680005B8704700000000811E000800230146E5
:101E78001A46184600F01EB838B50A4C0A4D641BBD
:101E8800A4100AD004F18043013B05EB8305013C13
:101E980055F804399847002CF9D1BDE8384000F0CE
:101EA8006FB800BFBC1F0008B81F0008704700BF0C
:101EB800704700BF2DE9F8432B4D06462868984621
:101EC8000F469146FFF7F2FF284B1C68D4F84831BB
:101ED800002B3DD05A681F2A0DDC02F1010C16BBFD
:101EE8000232C3F804C0286843F82270FFF7E0FF05
:101EF8000020BDE8F8831E4B7BB34FF4C870AFF3E6
:101F08000080034648B3D4F848210021C0E90021E5
:101F18004FF0010CC4F848010A46C0F88811C0F80F
:101F28008C11002EDCD003EB82010124C1F88890CB
:101F3800D3F8880194402043022EC3F88801C1F8E1
:101F48000881CDD1D3F88C110C43C3F88C41C7E775
:101F580004F5A673C4F84831BCE72868FFF7A8FF62
:101F68004FF0FF30C5E700BF38040020A41F000869
:101F780000000000F8B500BFF8BC08BC9E467047DA
:0C1F8800F8B500BFF8BC08BC9E467047CE
:101F94000000000000000000010203040607080915
:041FA4001000002009
:081FA80050E2FF7F0100000080
:081FB000611E0008AD010008EC
:041FB8008901000893
:101FBC000024F400010000001000000000000000EC
:101FCC0000000000FC02002064030020CC03002071
:101FDC0000000000000000000000000000000000F5
:101FEC0000000000000000000000000000000000E5
:101FFC0000000000000000000000000000000000D5
:10200C0000000000000000000000000000000000C4
:10201C0000000000000000000000000000000000B4
:10202C0000000000000000000000000000000000A4
:10203C000000000000000000000000000000000094
:10204C000000000000000000000000000000000084
:10205C000000000000000000000000000000000074
:10206C000000000000000000010000000000000063
:10207C000E33CDAB34126DE6ECDE05000B00000028
:10208C000000000000000000000000000000000044
:10209C000000000000000000000000000000000034
:1020AC000000000000000000000000000000000024
:1020BC000000000000000000000000000000000014
:0C23EC0000000000000000005C05002064
:0400000508001D31A1
:00000001FF
