:020000040800F2
:1000000000000220112C0008510F0008530F0008B7
:10001000550F0008570F0008590F00080000000096
:100020000000000000000000000000005B0F00085E
:100030005D0F0008000000005F0F0008610F00085E
:10004000612C0008612C0008612C0008612C00085C
:10005000612C0008612C0008690F0008612C000861
:10006000612C0008612C0008612C0008612C00083C
:10007000612C0008612C0008612C0008612C00082C
:10008000612C0008612C0008612C0008612C00081C
:10009000612C0008612C0008612C0008612C00080C
:1000A000612C0008750F0008612C0008612C000805
:1000B000612C0008612C0008612C0008612C0008EC
:1000C000612C0008612C0008612C0008612C0008DC
:1000D000612C0008612C0008612C0008612C0008CC
:1000E000612C0008612C0008612C0008612C0008BC
:1000F000612C0008612C0008612C0008612C0008AC
:10010000612C0008612C0008612C0008612C00089B
:10011000612C0008612C0008612C0008612C00088B
:10012000612C0008612C0008612C0008612C00087B
:10013000612C0008612C0008612C0008612C00086B
:10014000612C0008612C0008612C0008612C00085B
:10015000612C0008612C0008612C0008612C00084B
:10016000612C0008612C0008612C0008612C00083B
:10017000612C0008612C0008612C000800000000C0
:08018000612C0008612C00084D
:1001880010B5054C237833B9044B13B10448AFF3C9
:1001980000800123237010BD3C04002000000000F3
:1001A8005C2E000808B5034B1BB103490348AFF3A5
:1001B800008008BD00000000400400205C2E0008FC
:1001C80080F0004002E000BF81F0004142001FBF04
:1001D8005FEA410392EA030F7FEA226C7FEA236C0D
:1001E8006AD04FEA1262D2EB1363C1BFD218414002
:1001F80048404140B8BF5B42192B88BF704710F098
:10020800004F40F4000020F07F4018BF404211F03A
:10021800004F41F4000121F07F4118BF494292EAA2
:10022800030F3FD0A2F1010241FA03FC10EB0C00CE
:10023800C3F1200301FA03F100F0004302D549425B
:1002480060EB4000B0F5000F13D3B0F1807F06D308
:1002580040084FEA310102F10102FE2A51D2B1F100
:10026800004F40EBC25008BF20F0010040EA0300F5
:100278007047490040EB000010F4000FA2F10102A2
:10028800EDD1B0FA80FCACF1080CB2EB0C0200FA2C
:100298000CF0AABF00EBC25052421843BCBFD0407A
:1002A8001843704792F0000F81F4000106BF80F4F4
:1002B80000000132013BB5E74FEA41037FEA226CB7
:1002C80018BF7FEA236C21D092EA030F04D092F082
:1002D800000F08BF0846704790EA010F1CBF0020B6
:1002E800704712F07F4F04D1400028BF40F0004013
:1002F800704712F100723CBF00F50000704700F033
:10030800004343F0FE4040F4000070477FEA226259
:1003180016BF08467FEA23630146420206BF5FEA2A
:10032800412390EA010F40F4800070474FF000032A
:1003380004E000BF10F0004348BF40425FEA000CF1
:1003480008BF704743F0964301464FF000001CE099
:1003580050EA010208BF70474FF000030AE000BFEF
:1003680050EA010208BF704711F0004302D540422D
:1003780061EB41015FEA010C02BF8446014600209F
:1003880043F0B64308BFA3F18053A3F50003BCFABA
:100398008CF2083AA3EBC25310DB01FA02FC634467
:1003A80000FA02FCC2F12002BCF1004F20FA02F26E
:1003B80043EB020008BF20F00100704702F1200261
:1003C80001FA02FCC2F1200250EA4C0021FA02F2C2
:1003D80043EB020008BF20EADC7070474FF0FF0CC7
:1003E8001CEAD0521EBF1CEAD15392EA0C0F93EAC2
:1003F8000C0F6FD01A4480EA010C400218BF5FEA64
:1004080041211ED04FF0006343EA501043EA5111D6
:10041800A0FB01310CF00040B1F5000F3EBF4900D0
:1004280041EAD3715B0040EA010062F17F02FD2AD4
:100438001DD8B3F1004F40EBC25008BF20F00100B7
:10044800704790F0000F0CF0004C08BF49024CEACE
:10045800502040EA51207F3AC2BFD2F1FF0340EA60
:10046800C250704740F400004FF00003013A5DDCD1
:1004780012F1190FDCBF00F000407047C2F1000212
:10048800410021FA02F1C2F1200200FA02FC5FEAFF
:10049800310040F1000053EA4C0308BF20EADC7049
:1004A800704792F0000F00F0004C02BF400010F4BB
:1004B800000F013AF9D040EA0C0093F0000F01F068
:1004C800004C02BF490011F4000F013BF9D041EA8A
:1004D8000C018FE70CEAD15392EA0C0F18BF93EA8C
:1004E8000C0F0AD030F0004C18BF31F0004CD8D1B6
:1004F80080EA010000F00040704790F0000F17BF3D
:1005080090F0004F084691F0000F91F0004F14D082
:1005180092EA0C0F01D142020FD193EA0C0F03D1DA
:100528004B0218BF084608D180EA010000F00040DD
:1005380040F0FE4040F40000704740F0FE4040F4B8
:10054800400070474FF0FF0C1CEAD0521EBF1CEA57
:10055800D15392EA0C0F93EA0C0F69D0A2EB030275
:1005680080EA010C49024FEA402037D04FF080530F
:1005780043EA111143EA10130CF000408B4238BFD4
:100588005B0042F17D024FF4000C8B4224BF5B1AE2
:1005980040EA0C00B3EB510F24BFA3EB510340EA30
:1005A8005C00B3EB910F24BFA3EB910340EA9C00DE
:1005B800B3EBD10F24BFA3EBD10340EADC001B014E
:1005C80018BF5FEA1C1CE0D1FD2A3FF650AF8B42F2
:1005D80040EBC25008BF20F0010070470CF0004CFF
:1005E8004CEA50207F32C2BFD2F1FF0340EAC2502A
:1005F800704740F400004FF00003013A37E792F0EB
:10060800000F00F0004C02BF400010F4000F013A48
:10061800F9D040EA0C0093F0000F01F0004C02BF43
:10062800490011F4000F013BF9D041EA0C0195E7AC
:100638000CEAD15392EA0C0F08D142027FF47DAF45
:1006480093EA0C0F7FF470AF084676E793EA0C0F35
:1006580004D14B023FF44CAF08466EE730F0004C33
:1006680018BF31F0004CCAD130F000427FF45CAFC3
:1006780031F000437FF43CAF5FE700BF4FF0FF3C31
:1006880006E000BF4FF0010C02E000BF4FF0010C84
:100698004DF804CD4FEA40024FEA41037FEA226C4D
:1006A80018BF7FEA236C11D001B052EA530C18BF6F
:1006B80090EA010F58BFB2EB030088BFC81738BFD4
:1006C8006FEAE17018BF40F0010070477FEA226CC2
:1006D80002D15FEA402C05D17FEA236CE4D15FEABE
:1006E800412CE1D05DF8040B704700BF84460846F2
:1006F8006146FFE70FB5FFF7C9FF002848BF10F1B3
:10070800000F0FBD4DF808EDFFF7F4FF0CBF0120F7
:1007180000205DF808FB00BF4DF808EDFFF7EAFF81
:1007280034BF012000205DF808FB00BF4DF808ED3C
:10073800FFF7E0FF94BF012000205DF808FB00BF31
:100748004DF808EDFFF7D2FF94BF012000205DF8B7
:1007580008FB00BF4DF808EDFFF7C8FF34BF0120C4
:1007680000205DF808FB00BF53B94AB9002908BF4B
:1007780000281CBF4FF0FF314FF0FF3000F072B976
:10078800ADF1080C6DE904CE00F006F8DDF804E0E0
:10079800DDE9022304B070472DE9F047089E0446BE
:1007A8008846002B4BD18A42154667D9B2FA82F2A5
:1007B8004AB1C2F1200701FA02F320FA07F795407F
:1007C80047EA030894404FEA154E230CB8FBFEF79E
:1007D8001FFA85FC0EFB178843EA084307FB0CF158
:1007E800994209D9EB1807F1FF3080F01B81994233
:1007F80040F21881023F2B445B1AA4B2B3FBFEF00F
:100808000EFB103344EA034400FB0CFCA44509D951
:100818002C1900F1FF3380F00781A44540F20481D0
:1008280002382C4440EA0740A4EB0C0400271EB110
:10083800D4400023C6E900433946BDE8F0878B421F
:1008480009D9002E00F0EB800027C6E900013846E0
:100858003946BDE8F087B3FA83F7002F47D18B42BA
:1008680002D3824200F2FA80841A61EB030301206A
:100878009846002EE0D0C6E90048DDE702B9FFDE61
:10088800B2FA82F2002A40F08F80491B4FEA154ED7
:100898001FFA85F80127B1FBFEFC230C0EFB1C1187
:1008A80043EA014308FB0CF1994207D9EB180CF114
:1008B800FF3002D2994200F2CD808446591AA3B281
:1008C800B1FBFEF00EFB101443EA044408FB00F8E9
:1008D800A04507D92C1900F1FF3302D2A04500F238
:1008E800B6801846A4EB080440EA0C409FE7C7F11D
:1008F800200CBB4022FA0CFE4EEA030E01FA07F464
:1009080020FA0CF521FA0CF34FEA1E482543B3FBF5
:10091800F8F92C0C08FB19331FFA8EFA44EA034342
:1009280009FB0AF49C4202FA07F200FA07F10BD914
:100938001EEB030309F1FF3080F087809C4240F2F0
:100948008480A9F1020973441B1BADB2B3FBF8F014
:1009580008FB103345EA034400FB0AFAA24508D90C
:100968001EEB040400F1FF336BD2A24569D90238AB
:10097800744440EA0940A0FB0289A4EB0A044C45F0
:10098800C2464B4654D351D0002E69D0B1EB0A056C
:1009980064EB030404FA0CFCFD40FC404CEA05053A
:1009A800C6E90054002747E7C2F1200320FA03F7FD
:1009B800954001FA02F021FA03F34FEA154E384345
:1009C800010CB3FBFEF71FFA85F80EFB173341EA5B
:1009D800034107FB08F38B4204FA02F407D96918AC
:1009E80007F1FF3C2FD28B422DD9023F2944CB1A65
:1009F80081B2B3FBFEF00EFB103341EA034100FB6A
:100A080008F38B4207D9691800F1FF3C17D28B42D3
:100A180015D902382944C91A40EA07473BE737463F
:100A2800304609E70746E7E61846FBE64145ABD2FC
:100A3800B8EB020A69EB0E0201381346A4E76046D8
:100A4800E9E7184695E76746D1E781467CE702382B
:100A58002C4447E7ACF1020C2B442FE7384608E753
:100A68003746E9E6704700BF10B504460C4B1960DD
:100A780001225A6000229A60194600F0AFFF58B967
:100A8800204600F0B3FE0A21204600F049FF204628
:100A980000F0A1FF80B210BD00F0BEF9F0E700BF82
:100AA800E804002000B585B0002300930193029369
:100AB80003931548154A02604FF480324260836000
:100AC8000361037680F82030C362114A8262C360F2
:100AD8000122C26180F83030426100F05BFE68B9E3
:100AE80011230093012301930023029369460648CA
:100AF80000F074FF28B905B05DF804FB00F08CF92C
:100B0800EEE700F089F9F6E75804002000200140DC
:100B18000100000F00B585B00023009301930293F4
:100B280003931548154A02604FF48032426083608F
:100B38000361037680F82030C362114A8262C36081
:100B48000122C26180F83030426100F023FE68B9AA
:100B58000823009301230193002302936946064862
:100B680000F03CFF28B905B05DF804FB00F054F92B
:100B7800EEE700F051F9F6E7A0040020002201405A
:100B88000100000F00B589B0002303930493059377
:100B98000693079303681B4A934205D01A4A934267
:100BA8000FD009B05DF804FB00230093174B5A6C73
:100BB80042F480725A645B6C03F480730093009B68
:100BC800EFE700210191114B5A6C42F480625A649C
:100BD8005A6C02F480620192019A02911A6B42F0F7
:100BE80020021A631B6B03F020030293029B4FF44D
:100BF800806303930323049303A9054801F020F8B5
:100C0800CFE700BF00200140002201400038024029
:100C18000014024038B500252C4606E01121094889
:100C2800FFF722FF05440134E4B2C72CF6D9284661
:100C3800FFF77CFB01460448FFF784FC034B186070
:100C480038BD00BF58040020010070430000002098
:100C580008B5FFF727FFFFF75DFFFFF7DBFF08BDCC
:100C680008B510210948FFF7FFFEFFF75FFB084BA7
:100C78001968FFF7B3FB0749FFF7A6FA0649FFF71C
:100C8800ADFB0649FFF7A2FA08BD00BF58040020D3
:100C9800000000205C8F423F0000C8430000C841AC
:100CA80008B508210648FFF7DFFEFFF73FFB054BB5
:100CB8001968FFF793FB0449FFF790FB08BD00BFD5
:100CC800A0040020000000205D742141012800D00C
:100CD800704708B5064B1B7803B108BD0121044BCA
:100CE8001970044801F090F8034B1870F5E700BF3D
:100CF800F804002000000240F904002038B5104D27
:100D08002A684FF4FA7353639363D36313640D4CE7
:100D1800226853639363D3634FF47A7000F08CFCBA
:100D28002A684FF4FA6353639363D36313642268A6
:100D380053639363D3634FF47A7000F07DFC38BD3E
:100D480004050020C405002070B58AB0002405946D
:100D5800069407940894099400942B4B1A6B42F05C
:100D680001021A631A6B02F001020092009A0194C0
:100D78001A6B42F480721A631A6B02F48072019241
:100D8800019A02941A6B42F080021A631A6B02F0FD
:100D980080020292029A03941A6B42F020021A63AC
:100DA8001A6B02F020020392039A04941A6B42F021
:100DB80008021A631B6B03F008030493049B134E89
:100DC80001224FF4E051304601F025F84FF4E0538A
:100DD8000593012506950795089405A9304600F066
:100DE8002FFF05950A4B0693079505A9094800F0BA
:100DF80027FF22462146062000F0CAFE062000F002
:100E0800FBFE0AB070BD00BF00380240001C024063
:100E1800000031100000024072B6FEE700B595B040
:100E28003022002108A801F03DFF0023039304931A
:100E38000593069307930193204A116C41F0805162
:100E48001164126C02F080520192019A02931C4BB9
:100E58001A6842F480421A601B6803F480430293C4
:100E6800029B012308934FF48033099302230E93C6
:100E78004FF480020F9206221092A8221192129328
:100E88000423139308A800F0DBFF98B90F230393FA
:100E980002230493002305934FF4A05306934FF4C1
:100EA80080530793052103A801F014FA20B915B05F
:100EB8005DF804FBFFF7B0FFFFF7AEFF0038024014
:100EC8000070004008B500F08BFBFFF7A7FFFFF7A5
:100ED8003BFF00F011FBFFF7BBFE02E0642000F0CF
:100EE800ABFBFFF7DDFE074C2060FFF7B9FE064BB2
:100EF800186006492068FFF72DFC0028EED0FFF7A0
:100F0800FDFEEBE700050020FC0400200000204166
:100F180082B0002100910B4B5A6C42F480425A6413
:100F28005A6C02F480420092009A01911A6C42F0C5
:100F380080521A641B6C03F080530193019B02B02A
:100F4800704700BF00380240FEE7FEE7FEE7FEE715
:100F5800FEE770477047704708B500F05BFB08BDB7
:100F680008B5012000F05EFF08BD000008B5024882
:100F780001F039FB08BD00BF04050020024B4FF00B
:100F880000629A60704700BF00ED00E000B585B0D0
:100F98000368254A93420BD0244A93421CD0244A22
:100FA800934226D0234A934230D005B05DF804FB23
:100FB80000210091204B5A6C42F001025A645B6C8C
:100FC80003F001030093009B0A46192000F0E0FD9E
:100FD800192000F011FEE8E700230193164B1A6C64
:100FE80042F004021A641B6C03F004030193019B92
:100FF800DBE700230293104B1A6C42F008021A64D4
:101008001B6C03F008030293029BCEE700230393B3
:10101800094B5A6C42F002025A645B6C03F00203FB
:101028000393039BC1E700BF000001400008004094
:10103800000C0040000401400038024000B58BB0AD
:101048000023059306930793089309930368354A89
:1010580093420BD0344A934220D0344A934234D03E
:10106800334A934247D00BB05DF804FB0023019349
:10107800304B1A6B42F001021A631B6B03F0010339
:101088000193019B4FF47063059302230693012398
:10109800099305A9284800F0D3FDE4E7002302934B
:1010A800244B1A6B42F008021A631B6B03F0080307
:1010B8000293029B4FF480430593022306930993FE
:1010C80005A91E4800F0BCFDCDE700230393194B8A
:1010D8001A6B42F001021A631B6B03F001030393BE
:1010E800039B0623059302230693099305A9124837
:1010F80000F0A6FDB7E7002304930E4B1A6B42F4E9
:1011080080721A631B6B03F480730493049BE023BF
:101118000593022306930323099305A9084800F0C1
:101128008FFDA0E70000014000080040000C0040CF
:10113800000401400038024000000240000C024058
:101148000020024010B596B0002412941394149411
:1011580015941094119409940A940B940C940D947A
:101168000E940F942022214601A801F09BFD3D48D2
:101178003D4B0360A7234360846044F61F63C3604C
:1011880004614461846101F04FFB00284ED116A927
:101198004FF4805341F8103D324801F028FC0028F4
:1011A80047D1304801F059FB002845D1002310935E
:1011B800119310A92B4801F0B7FC00283FD16023F8
:1011C80009934FF4FA630A9300220B920C920D9242
:1011D8000E920F9209A9234801F090FB002831D103
:1011E800042209A91F4801F089FB70BB082209A93C
:1011F8001C4801F083FB58BB0C2209A9194801F0CF
:101208007DFB40BB00230193029303930493059352
:101218004FF400520692089301A9124801F0C8FC45
:10122800E0B91048FFF70AFF16B010BDFFF7F4FD4C
:10123800ADE7FFF7F1FDB4E7FFF7EEFDB6E7FFF71F
:10124800EBFDBCE7FFF7E8FDCAE7FFF7E5FDCDE7F3
:10125800FFF7E2FDD0E7FFF7DFFDD3E7FFF7DCFD9F
:10126800DFE700BF040500200000014000B58FB093
:1012780000230A930B930C930D93089309930193FE
:101288000293039304930593069307932148224AF4
:1012980002604360836045F20722C2600361836194
:1012A80001F0C2FA30BB0EA94FF4805341F8103D4B
:1012B800184801F09CFB00BB164801F0CEFAF8B9BB
:1012C80000230893099308A9124801F02DFCD0B90E
:1012D800602301930023029303930593082201A935
:1012E8000C4801F00BFB88B90A48FFF7A7FE0FB0BE
:1012F8005DF804FBFFF790FDD5E7FFF78DFDDBE711
:10130800FFF78AFDDCE7FFF787FDE1E7FFF784FDDC
:10131800EAE700BF440500200008004000B58FB090
:1013280000230A930B930C930D930893099301934D
:101338000293039304930593069307932748284A37
:101348000260436083604FF6FF72C260036183618D
:1013580001F06AFA78BB0EA94FF4805341F8103DAA
:101368001E4801F044FB48BB1C4801F076FA40BB1C
:1013780000230893099308A9184801F0D5FB18BB66
:101388006023019342F210730293002303930593A1
:1013980004220DEB0201114801F0B0FAB8B9082295
:1013A80001A90E4801F0AAFAA0B90C48FFF746FEB9
:1013B8000FB05DF804FBFFF72FFDCCE7FFF72CFD1E
:1013C800D2E7FFF729FDD3E7FFF726FDD8E7FFF7B8
:1013D80023FDE4E7FFF720FDE7E700BF84050020D1
:1013E800000C004010B596B0002412941394149485
:1013F80015941094119409940A940B940C940D94D8
:101408000E940F942022214601A801F04BFC384885
:10141800384B0360A7234360846044F61F63C360AE
:1014280004614461846101F0FFF9002847D116A9DD
:101438004FF4805341F8103D2D4801F0D8FA0028A8
:1014480040D12B4801F009FA00283ED1002310931F
:10145800119310A9264801F067FB002838D16023B2
:1014680009934FF4FA630A9300220B920C920D929F
:101478000E920F9209A91E4801F040FA58BB0422A7
:1014880009A91B4801F03AFA40BB082209A91848E3
:1014980001F034FA28BB00230193029303930493C9
:1014A80005934FF400520692089301A9104801F0E1
:1014B8007FFBC8B90E48FFF7C1FD16B010BDFFF796
:1014C800ABFCB4E7FFF7A8FCBBE7FFF7A5FCBDE75B
:1014D800FFF7A2FCC3E7FFF79FFCD0E7FFF79CFCF0
:1014E800D3E7FFF799FCD6E7FFF796FCE2E700BFE2
:1014F800C40500200004014010B5FFF723FEFFF7E4
:10150800B5FEFFF70BFFFFF76DFF1E4C204601F0FD
:1015180052F80021204601F0E7FA0421204601F0A4
:10152800E3FA0821204601F0DFFA0C21204601F0F9
:10153800DBFA154C204601F03EF80821204601F060
:10154800D3FA124C204601F036F80021204601F06B
:10155800CBFA0421204601F0C7FA0821204601F001
:10156800C3FA0B4C204601F026F80021204601F072
:10157800BBFA0421204601F0B7FA0821204601F001
:10158800B3FA10BD0405002044050020840500209E
:10159800C405002010B504460E4B18784FF47A7332
:1015A800B3FBF0F30C4A1068B0FBF3F000F032FB29
:1015B80068B90F2C01D901200AE0002221464FF01A
:1015C800FF3000F0E5FA054B1C60002000E0012028
:1015D80010BD00BF08000020040000200C000020FF
:1015E80008B50B4B1A6842F400721A601A6842F484
:1015F80080621A601A6842F480721A60032000F050
:10160800B5FA0020FFF7C6FFFFF782FC002008BDEF
:10161800003C0240034A1168034B1B780B441360DB
:10162800704700BF0406002008000020014B18681E
:10163800704700BF0406002038B50446FFF7F6FFE0
:101648000546B4F1FF3F02D0044B1B781C44FFF75A
:10165800EDFF401BA042FAD338BD00BF08000020B0
:101668004A4B5A6822F440325A605A6841680A4321
:101678005A600268536823F48073536002685368A1
:10168800016943EA012353600268536823F04073F9
:1016980053600268536881680B435360026893681B
:1016A80023F40063936002689368C1680B439360F6
:1016B800826A374B9A424BD00268936823F0706372
:1016C800936002689368816A0B4393600268936829
:1016D80023F04053936002689368C16A0B43936098
:1016E8000268936823F00203936002689368017E9E
:1016F80043EA4103936090F82030002B33D102680D
:10170800536823F4006353600268D36A23F47003B8
:10171800D3620168CB6AC269013A43EA0253CB62D9
:101728000268936823F4007393600268936890F8E2
:10173800301043EA412393600268936823F480637E
:10174800936002689368416943EA81239360704714
:101758000268936823F0706393600268936823F0CB
:1017680040539360BCE70268536843F400635360D6
:101778000268536823F46043536001684B68426A07
:10178800013A43EA42334B60BEE700BF0023014001
:101798000100000F38B310B50446036C43B1236C45
:1017A80013F0100F0BD00120002384F83C3010BD3B
:1017B800FFF7E8F90023636484F83C30EFE7236C13
:1017C80023F4885323F0020343F0020323642046E2
:1017D800FFF746FF00206064236C23F0030343F007
:1017E80001032364E0E701207047000082B0002372
:1017F800019390F83C30012B7DD0012380F83C30D8
:1018080003689A6812F0010F13D19A6842F0010236
:101818009A603E4B1B683E4AA2FB03239B0C03EBDA
:101828004303019302E0019B013B0193019B002BC1
:10183800F9D10268936813F0010F5ED0036C23F4AA
:10184800E06323F0010343F480730364536813F4E3
:10185800806F05D0036C23F4405343F48053036432
:10186800036C13F4805F1BD0436C23F006034364BE
:10187800002380F83C306FF022031360254B5B682F
:1018880013F01F0F27D10368234A934219D002F59A
:101898008072934207D0214A93420BD000202DE05A
:1018A80000234364E4E702F50072526812F01F0F48
:1018B80007D0F0E702F58072526802F01F020F2A83
:1018C8001ED89A6812F0405F1CD19A6842F0804294
:1018D8009A60002012E003680F4A934201D000206A
:1018E8000CE09A6812F0405F0ED19A6842F080428C
:1018F8009A60002002E0022000E0002002B0704759
:101908000020FBE70020F9E70020F7E704000020AB
:1019180083DE1B43002301400020014000220140D8
:1019280003689A6812F4806F03D09B6813F4807F71
:101938001CD170B50D460446FFF778FE06462368AD
:101948001A6812F0020F1AD1B5F1FF3FF7D025B18E
:10195800FFF76CFE801BA842F1D9236C43F0040307
:101968002364002384F83C3003202DE0036C43F00B
:1019780020030364002380F83C30012070476FF097
:1019880012021A60236C43F40073236423689A6874
:1019980012F0405F17D1227EBAB9DA6A12F4700FDA
:1019A80003D09B6813F4806F11D1236C23F48073E8
:1019B8002364236C13F4805F0BD1236C43F0010381
:1019C8002364002000E0002070BD0020FCE7002018
:1019D800FAE70020F8E70368D86C704730B482B0A3
:1019E8000023019390F83C30012B00F0B7800123CD
:1019F80080F83C300B68092B3ED90568EA689BB231
:101A080003EB43031E3B072404FA03F322EA030310
:101A1800EB600568EA688C680B8803EB43031E3BA0
:101A280004FA03F31343EB604B68062B3AD80568B6
:101A38006A6B03EB8303053B1F2404FA03F322EAD2
:101A480003036B6305686A6B4B6803EB8303053B11
:101A58000C8804FA03F313436B630268404B9A4201
:101A680050D002683E4B9A4255D0002380F83C3053
:101A7800184602B030BC704705682A699BB203EB70
:101A88004303072404FA03F322EA03032B610568DE
:101A98002A698C680B8803EB430304FA03F31343A6
:101AA8002B61C1E70C2B16D805682A6B03EB83035F
:101AB800233B1F2404FA03F322EA03032B6305687C
:101AC8002A6B4B6803EB8303233B0C8804FA03F36C
:101AD80013432B63C1E70568EA6A03EB8303413BC1
:101AE8001F2404FA03F322EA0303EB620568EA6A97
:101AF8004B6803EB8303413B0C8804FA03F313435D
:101B0800EB62AAE70B68122BABD1164A536843F471
:101B180080035360A5E70B68103B012BA5D8114A39
:101B2800536843F4000353600B68102B9DD10E4B90
:101B38001B6802F1467202F52E3202F28332A2FBD2
:101B480003239B0C03EB83035A00019202E0019BE1
:101B5800013B0193019B002BF9D186E7022088E71E
:101B6800002001400023014004000020074AD368F8
:101B780023F4E0631B041B0C000200F4E06018432C
:101B880040F0BF6040F40030D060704700ED00E0E6
:101B980030B4174BDB68C3F30223C3F10704042CEA
:101BA80028BF04241D1D062D18D9033B4FF0FF350F
:101BB80005FA04F421EA0401994005FA03F322EA3C
:101BC8000303194300280BDB0901C9B200F1604087
:101BD80000F5614080F8001330BC70470023E5E74A
:101BE80000F00F000901C9B2024B1954F4E700BF15
:101BF80000ED00E014ED00E0002807DB00F01F0214
:101C0800400901239340024A42F82030704700BF40
:101C180000E100E00138B0F1807F0AD2064B58603D
:101C2800064AF02182F823100020986007221A60E3
:101C380070470120704700BF10E000E000ED00E0B1
:101C480000230F2B00F2D780F0B583B039E00722CC
:101C580000E00022AA403A430234674D45F82420A8
:101C6800664A1468F24302EA04054F6817F4803F95
:101C780001D046EA0405614C2560646802EA04055F
:101C88004F6817F4003F01D046EA04055B4C6560D5
:101C9800A46802EA04054F6817F4801F01D046EAD9
:101CA8000405564CA560E46822404D6815F4001FF1
:101CB80001D046EA0402514CE26001330F2B00F2D6
:101CC800988001229A400C6804EA0206B242F4D1D4
:101CD8004C68651E012D03D9112C01D0122C12D18C
:101CE80085685F000324BC4025EA0405CC68BC4035
:101CF8002C438460456825EA02054C68C4F3001249
:101D08009A402A434260C4685F000322BA40D24323
:101D180014408D68BD402543C5604C68022C01D035
:101D2800122C13D1DD08083550F825E003F007041C
:101D38004FEA840C0F2404FA0CF42EEA040E0C6902
:101D480004FA0CF444EA0E0440F8254004682240E2
:101D58004C6804F00304BC40224302604A6812F055
:101D6800805FAAD000220192254A546C44F4804432
:101D78005464526C02F480420192019A9C08A51C9A
:101D88001D4A52F8257003F0030295000F22AA405D
:101D980027EA02071B4A90423FF45BAF02F58062D4
:101DA80090421AD002F58062904218D002F5806203
:101DB800904216D002F58062904214D002F58062FB
:101DC800904212D002F58062904210D002F58062F3
:101DD80090423FF43CAF08223CE701223AE7022256
:101DE80038E7032236E7042234E7052232E70622E1
:101DF80030E703B0F0BD704700380140003C0140B7
:101E080000380240000002400369194201D1002055
:101E180070470120704712B90904816170478161D8
:101E28007047000008B5054B5B69034200D108BD47
:101E3800024B5861FEF74AFFF9E700BF003C01403A
:101E4800002800F0E48170B582B00446036813F0FE
:101E5800010F3BD0A74B9B6803F00C03042B2CD03D
:101E6800A44B9B6803F00C03082B21D06368B3F5DF
:101E7800803F4FD0B3F5A02F52D09E4B1A6822F462
:101E880080321A601A6822F480221A606368002B74
:101E980050D0FFF7CBFB0546964B1B6813F4003F69
:101EA80014D1FFF7C3FB401B6428F5D90320B3E125
:101EB800904B5B6813F4800FD8D08E4B1B6813F4DB
:101EC800003F03D06368002B00F0A381236813F060
:101ED800020F55D0874B9B6813F00C0F3ED0854BF3
:101EE8009B6803F00C03082B33D0E368002B68D001
:101EF800814B01221A60FFF799FB05467D4B1B6851
:101F080013F0020F54D1FFF791FB401B0228F5D9BB
:101F1800032081E1774A136843F480331360B5E7FF
:101F2800744B1A6842F480221A601A6842F48032AC
:101F38001A60ABE7FFF77AFB05466E4B1B6813F494
:101F4800003FC3D0FFF772FB401B6428F5D903207C
:101F580062E1684B5B6813F4800FC6D1654B1B6860
:101F680013F0020F04D0E368012B01D0012053E1E4
:101F7800604A136823F0F803216943EAC103136038
:101F8800236813F0080F40D0636963B35B4B0122E9
:101F98001A60FFF74BFB0546564B5B6F13F0020FB9
:101FA80033D1FFF743FB401B0228F5D9032033E167
:101FB800504A136823F0F803216943EAC103136008
:101FC800DEE74D4B00221A60FFF730FB0546494B10
:101FD8001B6813F0020FD3D0FFF728FB401B022821
:101FE800F5D9032018E1454B00221A60FFF71EFBC4
:101FF8000546404B5B6F13F0020F06D0FFF716FB48
:10200800401B0228F5D9032006E1236813F0040FCA
:1020180079D0384B1B6C13F0805F33D100230193C8
:10202800344B1A6C42F080521A641B6C03F08053D4
:102038000193019B0125324B1B6813F4807F23D049
:10204800A368012B34D0052B38D02A4B1A6F22F005
:1020580001021A671A6F22F004021A67A368002B9C
:1020680036D0FFF7E3FA0646224B1B6F13F0020F38
:1020780048D1FFF7DBFA801B41F288339842F3D945
:102088000320C9E00025D6E71D4A136843F480738E
:102098001360FFF7CBFA0646194B1B6813F4807FD1
:1020A800CED1FFF7C3FA801B0228F5D90320B3E08D
:1020B800104A136F43F001031367CFE70D4B1A6FF4
:1020C80042F004021A671A6F42F001021A67C5E764
:1020D800FFF7ACFA0646074B1B6F13F0020F11D03F
:1020E800FFF7A4FA801B41F288339842F3D9032002
:1020F80092E000BF0038024000004742800E47428D
:1021080000700040EDB9A369002B00F08480454AB7
:10211800926802F00C02082A51D0022B17D0424BC9
:1021280000221A60FFF782FA04463E4B1B6813F040
:10213800007F42D0FFF77AFA001B0228F5D9032066
:102148006AE0384A136C23F080531364DBE7364B9C
:1021580000221A60FFF76AFA0546324B1B6813F033
:10216800007F06D0FFF762FA401B0228F5D903204A
:1021780052E0E369226A1343626A43EA8213A26A5D
:102188005208013A43EA0243E26A43EA0263254AF3
:102198005360254B01221A60FFF748FA0446214B89
:1021A8001B6813F0007F06D1FFF740FA001B0228D6
:1021B800F5D9032030E000202EE000202CE0012B90
:1021C8002CD0184B5B6803F48001E269914201D07E
:1021D800012021E003F03F02216A8A4201D0012058
:1021E8001AE0616A47F6C0721A408A4201D001209B
:1021F80012E003F44032A16A8A4201D001200BE0C8
:1022080003F07063E26A93420AD0012004E00120DF
:102218007047012000E0002002B070BD0120FBE7FC
:102228000020F9E70038024060004742264B9B68CF
:1022380003F00C03042B44D0082B01D0234870472B
:102248002DE9F04B204B5A6802F03F025B6813F40B
:10225800800F13D01C4B5968C1F3881100231C4808
:10226800A1FB0001FEF780FA174B5B68C3F301433B
:1022780001335B00B0FBF3F0BDE8F08B124B5B68F9
:10228800C3F388131E4600275C010025E41A65EB9A
:102298000705A90141EA9461A001001B61EB050152
:1022A800CB0043EA5073C400A01943EB07018B022B
:1022B80043EA90538402204619460023FEF754FA55
:1022C800D2E70348704700BF003802400024F400FA
:1022D800001BB700002800F09E8070B50446504BE4
:1022E8001B6803F00F038B4209D2CBB24C4A137020
:1022F800136803F00F038B4201D0012070BD2368DF
:1023080013F0020F17D013F0040F04D0454A936856
:1023180043F4E0539360236813F0080F04D0414A54
:10232800936843F4604393603E4A936823F0F00354
:10233800A068034393600D46236813F0010F32D061
:102348006368012B21D09A1E012A25D9354A1268C3
:1023580012F0020F61D033498A6822F00302134356
:102368008B60FFF763F906462E4B9B6803F00C035E
:102378006268B3EB820F16D0FFF758F9801B41F261
:1023880088339842F0D90320B8E7264A126812F435
:10239800003FE0D10120B1E7224A126812F0007F25
:1023A800D9D10120AAE71E4B1B6803F00F03AB42EB
:1023B80009D9EAB21A4B1A701B6803F00F03AB4233
:1023C80001D001209AE7236813F0040F06D0154ABC
:1023D800936823F4E053E1680B439360236813F098
:1023E800080F07D00F4A936823F46043216943EA32
:1023F800C1039360FFF71AFF0A4B9B68C3F30313EB
:10240800094AD35CD840094B1860094B1868FFF794
:10241800C1F8002072E70120704701206EE700BF75
:10242800003C024000380240742E000804000020DE
:102438000C00002030B4036A23F001030362056A2C
:102448004268846924F073040B681C4325F0020574
:102458008B682B43104DA84203D005F58065A84230
:1024680005D123F00803CD682B4323F004030A4D5C
:10247800A84203D005F58065A84205D122F4407230
:102488004D6915438A692A43426084614A684263F8
:10249800036230BC704700BF0000014030B4036ADB
:1024A80023F480730362036A4268C46924F07304E6
:1024B8000D682C4323F400738D6843EA0523124DFD
:1024C800A84203D005F58065A84206D123F400632D
:1024D800CD6843EA052323F480630B4DA84203D05B
:1024E80005F58065A84207D122F440524D6942EAB9
:1024F80005128D6942EA05124260C4614A68C263E6
:10250800036230BC704700BF0000014030B4036A6A
:1025180023F480530362036A4468C26922F4E642E2
:102528000D6842EA052223F400538D6843EA053317
:10253800094DA84203D005F58065A84204D124F4CA
:1025480080444D6944EA85144460C2614A68026463
:10255800036230BC704700BF0000014010B4036A3A
:10256800046A24F001040462846924F0F00444EA53
:10257800021223F00A030B438261036210BC704706
:1025880010B4036A23F0100303628469036A24F415
:10259800704444EA023223F0A00343EA0113826143
:1025A800036210BC7047836823F07003194341F03D
:1025B800070181607047022380F83D300268936804
:1025C80003F00703062B03D0136843F001031360DD
:1025D800012380F83D3000207047704770477047EE
:1025E80070477047704710B5044603681A6912F0BF
:1025F800020F11D0DA6812F0020F0DD06FF002024C
:102608001A610123037703689B6913F0030F70D0E5
:10261800FFF7E6FF0023237723681A6912F0040FF7
:1026280012D0DA6812F0040F0ED06FF004021A61AB
:102638000223237723689B6913F4407F5FD02046E9
:10264800FFF7CEFF0023237723681A6912F0080FDB
:1026580012D0DA6812F0080F0ED06FF008021A6173
:10266800042323772368DB6913F0030F4ED0204639
:10267800FFF7B6FF0023237723681A6912F0100FBB
:1026880012D0DA6812F0100F0ED06FF010021A6133
:10269800082323772368DB6913F4407F3DD0204665
:1026A800FFF79EFF0023237723681A6912F0010FB2
:1026B80003D0DA6812F0010F36D123681A6912F0D4
:1026C800800F03D0DA6812F0800F34D123681A69BA
:1026D80012F0400F03D0DA6812F0400F32D12368AD
:1026E8001A6912F0200F03D0DA6812F0200F30D1E7
:1026F80010BDFFF774FF2046FFF773FF8AE72046F7
:10270800FFF76DFF2046FFF76CFF9BE72046FFF7BA
:1027180066FF2046FFF765FFACE72046FFF75FFF3F
:102728002046FFF75EFFBDE76FF001021A61204601
:10273800FFF754FFC1E76FF080021A61204600F0EE
:1027480061FAC3E76FF040021A612046FFF74AFFBB
:10275800C5E76FF020021A61204600F052FAC7E779
:102768000368304A904212D0B0F1804F0FD0A2F5E2
:102778007C4290420BD002F58062904207D002F56D
:102788008062904203D002F57842904203D123F050
:1027980070034A681343234A90422AD0B0F1804F0D
:1027A80027D0A2F57C42904223D002F58062904265
:1027B8001FD002F5806290421BD002F57842904209
:1027C80017D002F57052904213D002F58062904201
:1027D8000FD002F5806290420BD0A2F59832904259
:1027E80007D002F58062904203D002F580629042E1
:1027F80003D123F44073CA68134323F080034A6962
:10280800134303608B68C3620B688362054B98426D
:1028180003D003F58063984201D10B690363012358
:102828004361704700000140A8B110B5044690F814
:102838003D305BB1022384F83D30211D2068FFF74D
:102848008FFF012384F83D30002010BD80F83C3014
:10285800FEF79CFBEEE701207047A8B110B50446CF
:1028680090F83D305BB1022384F83D30211D20688B
:10287800FFF776FF012384F83D30002010BD80F873
:102888003C30FFF7AAFEEEE70120704730B4036A38
:1028980023F010030362036A4468826922F4E64263
:1028A8000D6842EA052223F020038D6843EA0513E8
:1028B800114DA84203D005F58065A84206D123F042
:1028C8008003CD6843EA051323F040030A4DA8426C
:1028D80003D005F58065A84207D124F440644D690A
:1028E80044EA85048D6944EA8504446082614A6843
:1028F8008263036230BC70470000014038B590F82D
:102908003C30012B66D00D460446012380F83C304C
:10291800022380F83D300C2A1AD8DFE802F00719A4
:102928001919201919193419191947000068FFF7DE
:1029380081FD2268936943F00803936122689369D3
:1029480023F0040393612268936929690B43936117
:10295800012384F83D30002084F83C0038BD00682D
:10296800FFF794FF2268936943F400639361226838
:10297800936923F48063936122689369296943EA20
:1029880001239361E4E70068FFF788FD2268D369B3
:1029980043F00803D3612268D36923F00403D361A9
:1029A8002268D36929690B43D361D1E70068FFF72F
:1029B800ADFD2268D36943F40063D3612268D3690B
:1029C80023F48063D3612268D369296943EA012328
:1029D800D361BDE70220C1E710B4846824F47F44C2
:1029E80042EA03230B432343836010BC704790F8EB
:1029F8003C30012B66D010B50446012380F83C30EA
:102A0800022380F83D300268936823F47F4323F063
:102A1800770393600B68402B4AD013D9602B3DD0C5
:102A28001ED9702B28D0B3F5005F30D1CB684A6827
:102A380089680068FFF7D0FF2268936843F48043F1
:102A4800936024E0102B06D004D9202B03D0302B20
:102A580001D01CE0DBB919462068FFF7A4FD16E099
:102A6800502B14D1CA6849680068FFF777FD5021D8
:102A78002068FFF798FD0AE0CB684A688968006813
:102A8800FFF7AAFF2268936843F077039360012356
:102A980084F83D30002084F83C0010BDCA684968BD
:102AA8000068FFF76DFD60212068FFF77CFDEEE709
:102AB800CA6849680068FFF751FD40212068FFF7A0
:102AC80072FDE4E70220704710B401F01F010123F2
:102AD80003FA01F4036A23EA04030362036A8A40DF
:102AE8001343036210BC704710B504460122006806
:102AF800FFF7EAFF23680B4A934203D002F580628E
:102B0800934203D15A6C42F400425A642268936893
:102B180003F00703062B03D0136843F00103136087
:102B2800002010BD0000014090F83C30012B3BD044
:102B380030B4012380F83C30022380F83D3003682C
:102B48005C689D6824F070040A6822435A60036830
:102B5800164A93421AD0B3F1804F17D0A2F57C429F
:102B6800934213D002F5806293420FD002F580623F
:102B780093420BD002F57842934207D002F5705287
:102B8800934203D0A2F59432934204D125F08005F4
:102B98004A6815439D60012380F83D30002380F882
:102BA8003C30184630BC7047022070470000014096
:102BB80090F83C30012B22D0012380F83C30CB68C0
:102BC80023F440738A68134323F480634A681343E9
:102BD80023F400630A68134323F480530A691343F8
:102BE80023F400534A69134323F48043CA69134307
:102BF80002685364002380F83C301846704702206E
:102C08007047704770470000DFF834D0002103E0B8
:102C18000C4B5B58435004310B480C4B42189A42FA
:102C2800F6D30B4A02E0002342F8043B094B9A42D0
:102C3800F9D3FEF7A3F900F011F8FEF743F970474E
:102C4800000002209C2E0008000000203C04002008
:102C58003C0400202C060020FEE7000070B50D4E55
:102C68000D4D761BB61006D00024013455F8043BF0
:102C78009847A642F9D1094E094D761B00F0EAF8AB
:102C8800B61006D00024013455F8043B9847A642F4
:102C9800F9D170BD902E0008902E0008982E0008DB
:102CA800902E0008F0B4860743D0541E002A3ED068
:102CB800CAB2034602E014F1FF3438D303F8012BFB
:102CC8009D07F8D1032C2BD9CDB245EA05250F2C49
:102CD80045EA054516D9A4F110073F0903F1200676
:102CE80006EB071603F1100242E9045542E90255C2
:102CF8001032B242F8D104F00F040137032C03EB71
:102D080007130DD91E462246043A032A46F8045BE7
:102D1800FAD8221F22F003020432134404F00304F9
:102D28002CB1C9B21C4403F8011B9C42FBD1F0BC76
:102D3800704714460346C5E7024B13B1024800F03A
:102D480005B8704700000000612D00080023014607
:102D58001A46184600F01EB838B50A4C0A4D641BCE
:102D6800A4100AD004F18043013B05EB8305013C24
:102D780055F804399847002CF9D1BDE8384000F0DF
:102D88006FB800BF9C2E0008982E0008704700BF3F
:102D9800704700BF2DE9F8432B4D06462868984632
:102DA8000F469146FFF7F2FF284B1C68D4F84831CC
:102DB800002B3DD05A681F2A0DDC02F1010C16BB0E
:102DC8000232C3F804C0286843F82270FFF7E0FF16
:102DD8000020BDE8F8831E4B7BB34FF4C870AFF3F7
:102DE8000080034648B3D4F848210021C0E90021F7
:102DF8004FF0010CC4F848010A46C0F88811C0F821
:102E08008C11002EDCD003EB82010124C1F88890DC
:102E1800D3F8880194402043022EC3F88801C1F8F2
:102E28000881CDD1D3F88C110C43C3F88C41C7E786
:102E380004F5A673C4F84831BCE72868FFF7A8FF73
:102E48004FF0FF30C5E700BF38040020842E00088B
:102E580000000000F8B500BFF8BC08BC9E467047EB
:0C2E6800F8B500BFF8BC08BC9E467047DF
:102E74000000000000000000010203040607080926
:042E8400100000201A
:082E880018D9FF7F01000000D2
:082E9000412D0008AD0100080E
:042E980089010008A4
:102E9C006740533A0024F4000100000010000000C9
:102EAC0000000000FC02002064030020CC03002082
:102EBC000000000000000000000000000000000006
:102ECC0000000000000000000000000000000000F6
:102EDC0000000000000000000000000000000000E6
:102EEC0000000000000000000000000000000000D6
:102EFC0000000000000000000000000000000000C6
:102F0C0000000000000000000000000000000000B5
:102F1C0000000000000000000000000000000000A5
:102F2C000000000000000000000000000000000095
:102F3C000000000000000000000000000000000085
:102F4C000000000000000000010000000000000074
:102F5C000E33CDAB34126DE6ECDE05000B00000039
:102F6C000000000000000000000000000000000055
:102F7C000000000000000000000000000000000045
:102F8C000000000000000000000000000000000035
:102F9C000000000000000000000000000000000025
:0C32CC00000000000000000008060020C8
:0400000508002C11B2
:00000001FF
